:020000041000EA
:10000000002008205D0100101301001015010010F0
:100010001101001011010010110100101101001058
:10002000110100101101001011010010D583001002
:10003000110100101101001055830010B180001053
:100040001D0100101D0100101D0100101D010010F8
:100050001D0100101D0100101D0100101D010010E8
:100060001D0100101D0100101D0100101D010010D8
:100070001D0100101D0100101D0100101D010010C8
:100080001D0100101D0100101D0100101D010010B8
:100090001D0100101D0100101D0100101D010010A8
:1000A0001D0100101D0100101D0100101D01001098
:1000B0001D0100101D0100101D0100101D01001088
:1000C0001D0100101D0100101D0100101D01001078
:1000D0001D0100101D0100101D0100101D01001068
:1000E0001D0100101D0100101D0100101D01001058
:1000F0001D0100101D0100101D0100101D01001048
:100100001D0100101D0100101D0100101D01001037
:1001100000BE00BE00BE00BE00BE00BEEFF3058004
:10012000103800BEF2EB8871D4100410F4100410E3
:10013000A801001090A31AE7D3DEFFFF42012110AF
:10014000FF0100003C1C0400793512AB4FF00000A9
:100150002049086006C881F3088810474FF05040D6
:10016000006810B14FF00000F2E70FA40ECC002998
:1001700002D000F015F8F9E71749184A002000E00E
:1001800001C19142FCD1002080F30A8814498847BC
:10019000144988471449884700BEFDE701C901C2D8
:1001A0009A42FBD3704700BFF410041010010020E6
:1001B000900D0020741D041000000820000008208D
:1001C000741D04100010082000100820000000001A
:1001D0007047000008ED00E0900D0020681C002032
:1001E000F9330010A5020010F1330010F8B500BF7C
:1001F000064B0749C91A891048BF0131491003D07D
:10020000044B0BB101481847704700BF900D002008
:10021000900D00200000000008B5054B1BB10549FA
:100220000548AFF30080BDE80840FFF7E1BF00BF1D
:1002300000000000AC1A00206C96001008B503F016
:10024000FBFABDE80840002007F096B808B5084D55
:10025000084C0121002003F0E1FA4FF4FA7007F096
:1002600011FB286807F094F9206807F0E3F8F0E73D
:10027000F41B0020F81B002008B5084D084C002195
:10028000084603F0CBFA4FF4FA7007F0FBFA28683F
:1002900007F07EF9206807F0CDF8F0E7F81B0020A2
:1002A000F41B00200024032500B583B003F0B8F947
:1002B000CDE9005402250D4E802223460C490D48FD
:1002C00006F0D8FFCDE900560B4E802223460B499D
:1002D0000B4806F0CFFF802223460A49CDE900569D
:1002E000094806F0C7FF07F0A5F9FEE7F81B002054
:1002F000709600103D020010F41B0020789600104C
:100300004D020010849600107902001010B44FF4D2
:1003100080740C4B53F8202003EB8003C00082F064
:10032000400200F1804003F5805C02F0C00200F55D
:10033000203003F54053CCF8002041601C605DF88C
:10034000044B70470480034010B4084CC90041EAD4
:10035000820154F8202004EB8003514003F58053C0
:1003600001F00C015DF8044B1960704704800340F4
:10037000064B022203EB800319B103F500531A6008
:10038000704703F540531A60704700BF0480034074
:100390004FF050431B6893B10C4B4FEAD00C00F068
:1003A0000700800081400A4803EB8C030CF18C0CA1
:1003B00040F82C102AB103F5005319607047054B23
:1003C000EBE703F540531960704700BF908202408D
:1003D00000800240488202402DE9F0414FF0504831
:1003E0000D4FD8F80030164657F823200446024235
:1003F0000D4609D114432946324647F823401520BB
:10040000BDE8F04100F09AB901F0F6F9D8F80030F3
:1004100057F82320EEE700BF741B002010B50446F8
:10042000152000F07FFA4FF05043044A196852F843
:10043000213023EA040342F8213010BD741B002050
:1004400030B44FF0000343EC440043EC400005257A
:100450004FF480740B4BC20053F8201003EB800064
:1004600081F0400102F1804303F5203301F0C00226
:1004700000F5805100F540500A605D60046030BCBA
:10048000704700BF048003400FB400B583B0049CE4
:10049000074803F009F93CB105A92046019102F093
:1004A00077FF044803F000F9012002F089FF00BF44
:1004B00090960010A0960010EFF3108072B6064BD5
:1004C000D3E8CF1F01220029FAD1C3E8412F002928
:1004D000F6D1BFF35F8F7047231100200023034A3A
:1004E000C2E88F3F80F31088704700BF23110020BF
:1004F00070B58646EFF3108572B6124CD4E8CF6F14
:100500000120002EFAD1C4E8460F002EF6D1BFF329
:100510005F8F4FF0010CC80801F007030CFA03F3DA
:100520001EF800C01CEA030608D14CEA030C0EF8C2
:1005300000C0C4E88F6F85F3108870BD1046FFF7C8
:10054000A3FF00BF23110020F8B5EFF3108772B6A8
:100550001C4ED6E8CF5F0124002DFAD1C6E8454FE6
:10056000002DF6D1BFF35F8F9A421BD8012502E020
:100570000132934222D3D40810F804E002F0070CB1
:1005800005FA0CFC1EEA0C0FF2D14EEA0C0E00F834
:1005900004E010460023C6E88F3F87F31088984296
:1005A00007DBF8BD0023C6E88F3F87F310884FF0C4
:1005B000FF300029F5D00698FFF766FF4FF0FF30B7
:1005C000E8E700BF2311002000B5EFF3108E72B6EC
:1005D000104BD3E8CFCF0122BCF1000FF9D1C3E813
:1005E0004C2FBCF1000FF4D1BFF35F8F01224FEA13
:1005F000D10C01F0070102FA01F110F80C2022EAF7
:10060000010200F80C200022C3E88F2F8EF310881F
:100610005DF804FB23110020044A1078431CDBB270
:10062000182B28BF10231370704700BF98070020B5
:100630004FF0E022936843F000539360704700BF8F
:100640000021044B03F12002C3E88F1F01339342C2
:10065000FAD17047181100204FF0E0234FF080329C
:10066000C3F80024C3F80424C3F80824C3F80C24F6
:10067000C3F81024C3F81424C3F81824C3F81C24A6
:10068000C3F82024C3F82424C3F82824C3F82C2456
:10069000C3F83024704700BF012300F01F029340CD
:1006A000400941B1800000F1604000F56140C0F8B0
:1006B000803103607047024A203042F82030704792
:1006C00000E100E001224309034900F01F008240DD
:1006D000403341F82320704700E100E0F8B50D46B3
:1006E000EFF3108772B6124ED6E8CF2F0123002AFF
:1006F000FAD1C6E8423F002AF6D1BFF35F8F0D4B17
:1007000000F110049B680C4A53F82430934203D044
:10071000994201D001F070F8064B9B6843F82450D1
:10072000BFF35F8F0023C6E88F3F87F31088F8BDC3
:100730002111002000ED00E01D0100102DE9F04F17
:1007400081468B46164683B0EFF3108372B6DFF80E
:10075000D0A10093DAE8CF1F01230029FAD1CAE81B
:10076000413F0029F6D1BFF35F8F664B93F90040FC
:10077000002CC0F2A080644D04EB440705EB870811
:1007800098F8061009F110091970604BBF009B68BA
:1007900053F829006300411B2F292FD95C49884257
:1007A00040F0A4801C445B4B02372F44043BDB1B0E
:1007B000C3F34A036FEAC3434FF421416FEAD343C3
:1007C00025F8241005EB840463804BF60153A380C5
:1007D000FF2348F00100E671C4F808B0A3714B4B49
:1007E0009B6843F82900BFF35F8F0023CAE88F3F5F
:1007F000009B83F3108803B0BDE8F08F20F0010E5A
:100800009EF80710B1422ED84FF42143EB53414BD1
:10081000B91C2944043B04375B1A2F44AEF1040190
:10082000C91BC1F34A043C49C3F34A030B432143A8
:10083000A8F804103949A8F802304AF6AA207346ED
:100840005B1B5B415843000D88F8076088F8060081
:10085000C8F808B048F00100CEF80010BFE7D17921
:10086000B1422ED996469EF906C00CEB4C02BCF163
:10087000000F05EB8202F2DA4BF601510EF1040291
:10088000A8F10407BF1AC7F34A076FEAC7476FEA20
:10089000D7478EF8064003EB0408204C05EB88038D
:1008A000AEF8047045F82840998083F806C0DE71E0
:1008B000C3F808B093E700F09FFF124B93F9004094
:1008C00059E7724632F8041F490514D4491502311C
:1008D00002EB410101916FF00701C91B019F491B08
:1008E0003944C1F34A0141F46041C9E7019300F082
:1008F00083FF019B56E701F5FF1101F5FF511F3101
:10090000E4E700BF641C00209C07002000ED00E02D
:100910001D010010CC07002000E0FFFF01488047C8
:10092000211100202DE9F04F83B0EFF3108A72B649
:10093000714ED6E8CF2F0123002AFAD1C6E8423FF4
:10094000002AF6D1BFF35F8F6C4B00F110089B6853
:100950006B4A53F82850954245D08D420C4650D0F2
:10096000684FEB1B2F2B3ED801214FEA50194FEA5D
:10097000890909F1604909F5614900F01F0301FA8D
:1009800003F0D9F80030C9F8800000EA030BBFF388
:100990005F8FEFF30581C9B2002934D0884505D0B7
:1009A000CDE9001000F028FFDDE9001025F0010E70
:1009B000DEF808C0644505D189E0D3F808C0644575
:1009C00031D09E469EF9062002EB4203002A07EB37
:1009D0008303F2DA644561D0BBF1000F20D0C9F87F
:1009E0008001C9F80000454B9B6843F82850BFF3CD
:1009F0005F8F0023C6E88F3F8AF3108803B0BDE8FD
:100A0000F08F1546EFE725F0010EDEF808C06445CB
:100A1000D8D19EF906407346002C08DA154646E008
:100A2000C9F88000DFE793F90640002C37DB04EBC0
:100A3000440C07EB8C0C9CF80710DCF80820D971EB
:100A40009A609CF906206100002A9A713DDBBCF88F
:100A500004E05FEA4E5E05D50EF5FF1E0EF5FF5E63
:100A60000EF11F0E6FF0070C0A194FEA6E5E92002E
:100A700002EB4E0208323A44ACEB030C6244C2F380
:100A80004A026FEAC2426FEAD2429A801E4B214468
:100A90001A7807EB81011C708A719DE77346D9B9FA
:100AA000FF228EF806204BF60152AEF80420164CB9
:100AB0004AF6AA2294F800C01946C91B49414A4384
:100AC000120D83F806C0227086E7104ADDE79EF912
:100AD00006407346002CAADA0D4A0E4CD21A083A88
:100AE000C2F30A316FEA01516FEA115144EA52022E
:100AF000DA80998070E700BF2111002000ED00E04E
:100B00001D0100109C070020641C002001BDFFFF98
:100B1000D607002000F8FFFF4FF0FF0C20F0030382
:100B200003F1604303F5644300F003001A68C0005A
:100B30000CFA00FC22EA0C0281400A431A6070475A
:100B4000F0B5EFF30585EDB2EFF3108C72B62649E0
:100B5000D1E8CF2F0123002AFAD1C1E8423F002A71
:100B6000F6D1BFF35F8F214E40F0010EB4684AF614
:100B7000AA2354F825701E4A0446A41A644163430C
:100B80001B0D77455BB21BD092F906409C421CD0EE
:100B900092F912409C4223D092F91E409C4221D0EF
:100BA00092F92A409C4208BF03240FD0114A002426
:100BB000157813708571C1E88F4F8CF31088F0BDE4
:100BC000B2680D4C42F82540F0E7002404EB4404E1
:100BD00002EB8402FF2494714BF601549480E5E704
:100BE0000124F3E70224F1E72111002000ED00E0E9
:100BF0009C070020641C00201D01001001460248D3
:100C0000C1F13301FFF7E0BC651C002010B5074CB3
:100C100082B001460523002200940548FFF794FCAA
:100C20000028A8BFC0F1330002B010BDA496001088
:100C3000651C002070B504460E461546FFF7ECFC17
:100C40000146204600F006F8A680E580BFF35F8FDE
:100C500070BD00BF014B0B440360704718110020AA
:100C600070B5104C104DAC420ED2FF26236863B114
:100C7000FFF7D2FC01462046FFF7ECFFA680BFF34A
:100C80005F8F0834AC42F1D370BDFFF7C5FC01465D
:100C90002046FFF7DFFF2671BFF35F8F0834AC42B9
:100CA000E4D370BD880D0020900D002010B50446DF
:100CB000FFF7B2FC01462046FFF7CCFFFF23A380DD
:100CC000BFF35F8F10BD00BF0D4B1A68EFF31081AB
:100CD00072B6D2E8CFCF0120BCF1000FF9D1C2E843
:100CE0004C0FBCF1000FF4D1BFF35F8F00221B68E3
:100CF000C3E88F2F81F3108840BF00200021704788
:100D0000841B0020000000002DE9F04F2DED028B28
:100D100085B0EFF30583DBB2103B9A0818BF0122C0
:100D20004FF0010103F0030B18BFAF4DAF4B08BFED
:100D3000AF4D0BEB820253F8226001FA0BF205F57E
:100D400041539FEDA78B01925A602FE0B3881C049A
:100D500040F19380B379002B40F0DD80B6F9082094
:100D6000002AC0F21E81736902EB420203EBC20348
:100D7000D3E90247B7F1FF3F08BFB4F1FF3F0ED000
:100D800005EB8B01AB6A0A69D21AE31A934205D3C9
:100D900001232A6A03FA0BF3134200D10C6128469F
:100DA00000F008FCA042B941C0F2FB80B6F908305F
:100DB000019A002B0093EA63C8DBD6F8148003EB9A
:100DC0004309284608EBC907D7E9024A00F0F2FBBD
:100DD000A04271EB0A01B9DBBAF1000FC0F2C38087
:100DE000D7E90431834A934200F0ED807A88B6F95E
:100DF000080092B242EA0040984702460B4652EA87
:100E0000030100F0B080002B80F2D180B4EB020E21
:100E10006AEB030A38F93930C7E902EA002B95DB9F
:100E2000716903EB430201EBC202D2E90270BE45D5
:100E30007AEB000C4FEA430288DBB4462CF8083FFB
:100E400006E003EB430001EBC0005A00D0E902705A
:100E5000BE451A447AEB000001EBC20404DB31F911
:100E60003230A446002BECDA28F83930009BACF87D
:100E70000030B3881C043FF56DAF3369EFF3108287
:100E800072B6D3E8CF0F01210028FAD1C3E8401F82
:100E90000028F6D1BFF35F8F4FF6FF74B0880023B0
:100EA000316900B2B480C1E88F3F82F31088984264
:100EB000FFF650AF0746A946746906F1080807EB2C
:100EC000470E04EBCE03D3E90250B6F90830C4460E
:100ED000002B13DBB246009704E034F93630944619
:100EE000002B09DB03EB430604EBC602D2E90271D7
:100EF000BD4270EB0101F0DA5646009FACF800707D
:100F000034F93E7024F83E30002FD8DAB3794D46DC
:100F1000002B3FF423AF0023B371B6F9083006F17C
:100F20000808581C3DD01A46776903E08046591CD2
:100F30003FF416AF03EB430107EBC100B0F802C06A
:100F40001C461CF4004F9E4637F93130EED09442D7
:100F500080ED028B05D0A8F80030328927F83120C7
:100F600034817246E3E738F8393033813369EFF37F
:100F7000108272B6D3E8CF0F01210028FAD1C3E85E
:100F8000401F0028F6D1BFF35F8F7388316928F8BE
:100F90003930009B73800023C1E88F3F82F31088B3
:100FA000D4E640BF05B0BDEC028BBDE8F08F28460B
:100FB000CDE9022300F0FEFA029A039B10EB020E29
:100FC00043EB010A26E708460B690291984700287F
:100FD000C9D00299D1E9002311E700BFAFF3008027
:100FE000FFFFFFFFFFFFFFFF00800B40C41A002040
:100FF00000000B40090D00102DE9F84F364C256913
:101000002DB1BDE8F84F0A213448FFF723BEDFF8C1
:10101000E4800321404600F0BBFA0326C4F80C80AC
:10102000FFF7FAFA4FF0504C2D4B26700344236122
:10103000DCF800300F216370636961801D834FF01D
:101040000405A3F878504FF00505A3F890504FF031
:101050000605A3F8A8504FF007050E214FF6FF72C2
:1010600008274FF00A0EA3F8C0504FF001094FF0C7
:101070000C0C4FF0020B4FF0090A0D204FF00B053E
:10108000A3F868111749A280A3F808E1A160A3F8AA
:1010900048B0A3F8F0A0A3F82051A3F838C1A3F8F2
:1010A0005001A3F83090A3F86060A3F8D8701A80BC
:1010B0000D4B3046C8F820700C49DC60FFF70EFB82
:1010C00049463046FFF7E8FA094B0A211F640348F6
:1010D000BDE8F84FFFF7BEBDE4070020841B0020E9
:1010E00018110020FFFF1000C41A0020090D001085
:1010F00000200B4000000B4000487047E407002030
:10110000F8B59DF82050044617461E4635B900F044
:1011100059FA874266EB010100295CDB2169EFF394
:10112000108372B6D1E8CF0F01220028FAD1C1E8AE
:10113000402F0028F6D1BFF35F8FB4F90220656914
:1011400002EB4201002A4FEAC10C206905EBC10104
:1011500039DB35F80CE0A4F802E04FF0000EC0E8EF
:101160008FEF83F310884888069B0130C0F30E0090
:10117000012838BF01200B61079B48804B61C1E902
:10118000027640EA02402369EFF3108172B6D3E899
:10119000CF7F0126002FFAD1C3E8476F002FF6D189
:1011A000BFF35F8FA38825F80C30A2802369C3E8C2
:1011B0008FEF81F310880122E368217803F5015352
:1011C0008A405A60F8BD0022C0E88F2F83F3108850
:1011D0004FF0FF30F8BD2846F8BD00BF0146F0B51E
:1011E0000069EFF3108772B6D0E8CF5F0124002DBD
:1011F000FAD1C0E8454F002DF6D1BFF35F8FB1F9AA
:1012000002E04C690EEB4E0CBEF1000F4FEACC052C
:10121000086904EBCC0C3CDB665B4E800026C0E822
:101220008F6F87F31088BCF80200CCE902230130ED
:10123000C0F30E00012838BF0120059BACF8020066
:10124000CCF81030069B40EA0E40CCF814300B6905
:10125000EFF3108272B6D3E8CFCF0127BCF1000FB5
:10126000F9D1C3E84C7FBCF1000FF4D1BFF35F8F1D
:101270008B886353A1F804E00B69C3E88F6F82F396
:1012800010880122CB68097803F501538A405A601F
:10129000F0BD0023C0E88F3F87F310884FF0FF3088
:1012A000F0BD00BF03464089B0EB214F37DD5869E0
:1012B0000A1402EB420210B500EBC2001C69EFF306
:1012C000108C72B6D4E8CFEF0122BEF1000FF9D135
:1012D000C4E84E2FBEF1000FF4D1BFF35F8F4288F8
:1012E00089B292B28A4207D000221B69C3E88F2FCD
:1012F0008CF31088002010BD42F40042428001218E
:10130000002218699971C0E88F2F8CF310881C781F
:10131000DA68084602F50153A140596010BD00206B
:10132000704700BF2DE9F041851F41F1FF37A8420A
:1013300071EB070338BF002582B038BF2F46044643
:101340000E4600F03FF9281A67EB010C01287CF1EA
:10135000000C06DA2046314602B0BDE8F04100F04C
:101360003BB900F02FF9854267EB010100290ADB48
:101370000021174B2A46009316483B460191FFF780
:101380002DFF0130E6D04FF0000C134A1349536A89
:101390009F4204D8906AA842DCD29F42DAD10B68FF
:1013A000EFF3108072B6D3E8CF8F5FF0010EB8F183
:1013B000000FF8D1C3E848EFB8F1000FF3D1BFF345
:1013C0005F8F0B68C3E88FCF80F3108820BFDEE704
:1013D000C90C0010E407002000000B40841B002013
:1013E0002DE9F04182B0064600F0ECF84FF47A7334
:1013F00004464FF0FF306FF00042E6FB0341A0428D
:1014000072EB01033ABF044615460D46A61F45F18F
:10141000FF37B44275EB07033CBF0026374600F0A8
:10142000D1F8301A67EB0101012871F1000106DAE9
:101430002046294602B0BDE8F04100F0CDB800F0EA
:10144000C1F8864267EB010100290ADB0021174B36
:101450003246009316483B460191FFF7BFFE01302C
:10146000E6D04FF0000C134A1349536A9F4204D848
:10147000906AB042DCD29F42DAD10B68EFF3108061
:1014800072B6D3E8CF8F5FF0010EB8F1000FF8D13C
:10149000C3E848EFB8F1000FF3D1BFF35F8F0B68DB
:1014A000C3E88FCF80F3108820BFDEE7C90C00109F
:1014B000E407002000000B40841B00202DE9F043CE
:1014C00006460D4683B0EFF30584E4B23CB12D4BE4
:1014D0005A6AAA421CD2002003B0BDE8F0832A4F0A
:1014E000D7F80C9097F80080484600F063F808F1B0
:1014F000040859F828301B1A301A65EB010198428C
:1015000071F1000110DB20BF1E4B5A6AAA42E2D3E0
:1015100014BF012400249B6AB34234BF204644F028
:10152000010003B0BDE8F08300F04CF8864265EBA3
:101530000101002914DB154B3846CDE90034324651
:101540002B46FFF74BFE011E0ADD0E4B5A6AAA42DC
:1015500016D39B6AB34211D30B48FFF7A3FEB6E73D
:10156000084B5C6AAC42B6D3641B18BF01249B6A6B
:10157000B34234BF204644F00100ADE7AA42EBD1AC
:1015800020BFE9E700000B40E4070020C90C001071
:1015900010B4054B054C064AA04214BF1846581C0F
:1015A0005DF8044BFEF7A4BF7011002000800B40D3
:1015B000C09600100346416A0A46986A596A8A42F0
:1015C000FAD17047034B596A0A46986A596A9142A0
:1015D000FAD1704700000B40074A536A9942FCD881
:1015E000994207D1044B02E05A6A914202D19A6AA9
:1015F0009042F9D8704700BF00000B4000EB400C50
:101600004FEA8C0C0CF1804C0CF5803CF0B5164682
:10161000DCF80420051FB2F5803F38BF4FF480325C
:10162000EDB238BFCCF80420012D2AD94FF4006761
:10163000254C0CF54052176054F82020B2B9DCF864
:101640000020012D82EA461202F0E0020CF58056DD
:1016500032602AD94FF4006144F820304FF48033CF
:101660000CF500521160CCF80430F0BD6769B7FB8F
:10167000F2FE0EF1010E0EEB4E0EBEF1030EFCD289
:10168000DDE70129D2D103240CF540521460DCF8C7
:101690000820D207FBD5DCF800200B4C82EA46126A
:1016A00002F0E0020CF5805632600122DCF80050B6
:1016B0004D4005F00305356002FA01F1DCF8082021
:1016C0000A42FBD0C6E700BF78110020014B53F857
:1016D000200070477811002070B4039D04682D032A
:1016E00045EA03451B4B002CB3FBF1F3B2FBF3F6C9
:1016F0001FDB194A194B904214BF4FF480424FF43C
:101700000042174C1A6003F580531A60A36832EA4E
:101710000303FBD1212200F54053043301608660AE
:101720001A600268002AFCDA0822C5601A6070BCE0
:101730007047036803F03F038B42DAD18368C3F339
:101740000B03B342D5D1C36803F4EE23AB42D0D12F
:10175000EDE700BF001BB7000080054000200240FD
:1017600000000240012300EB4000800000F18040B7
:1017700000F5841041600360704700BF0023DB8ADE
:10178000002242E800F2520201D41021184704213D
:10179000184700BF034AD2F82838002BFBD0BFF30C
:1017A0005F8F704700000E400021044B044ABFF3D6
:1017B0005F8F43F8041B9342F9D170470C080E4029
:1017C0002C080E4010B44FF48D704FF42A64064A72
:1017D000064B07491460D06019605368002BFCDA8F
:1017E0005DF8044B704700BF0080044000A0044037
:1017F00000B0FA00704700BF08B50148FEF744FE8C
:10180000E496001038B5054C054DAC4204D254F8AE
:10181000043B9847AC42FAD338BD00BF2096001075
:101820006096001010B40748074C084B084A094955
:1018300004601A608B6832EA0303FBD15DF8044B45
:10184000704700BF002002407F3BEFEF00300240B6
:10185000F6FFF30300000240044BDB6CB3F5004FCE
:1018600003D14FF48022024BDA647047000011501C
:10187000002011504FF0E022044BD2F8881D0B439A
:10188000C2F8883D10EE3004704700BF03033000FB
:101890006FF06041044B054A19609368DB4333F0F5
:1018A0006043FAD1704700BF0030024000000240A0
:1018B00010B545F25320FFF761FFBDE81040034625
:1018C0000420184710B545F25320FFF757FFBDE835
:1018D0001040034601201847FEF7B2BE10B5054B75
:1018E000054C4FF488721846A16807F083FCA0608D
:1018F00010BD00BF0000002000ED00E0002370B527
:101900002B4C82B0C4F88430FFF75CFF0122294BD6
:10191000DA63636C012BFCD10321264A244B11634B
:101920009C6B012CFCD10226052521460523224A69
:1019300022480096FFF7D0FE21462B46204A214838
:101940000095FFF7C9FE0022042031461E4BFFF729
:1019500055FE2146284600221C4BFFF74FFE002271
:10196000082011461A4BFFF749FE002209201146B4
:10197000174BFFF743FE002206201146134BFFF7DB
:101980003DFE0022114B07201146FFF737FE0420D1
:10199000FFF79CFE00240F4BA3FB0035AD0CE0B21B
:1019A00029460134FFF7DEFE062CF8D102B070BDE7
:1019B0000000014000300140002F68590000054040
:1019C000008C864700800540001BB70080D1F008DE
:1019D000006CDC0283DE1B4386B003B451FC0804B8
:1019E000CDE9020151FC0904CDE9040151EC0A04DE
:1019F000CDE9060103BCF047BDE800504EEC00C441
:101A0000BDE800504EEC01C4BDE800504EEC02C4ED
:101A100000BD000000B5FFF7DFFF02E010FE30F46C
:101A2000F8D441EC100443EC112400EE010410EE54
:101A3000010480EE200451EC1004704700B5FFF75C
:101A4000CBFF02E010FE30F4F8D441EC100443EC7C
:101A5000112400EE010410EE210480EE200451EC6C
:101A60003004704700B5FFF7B7FF02E010FE30F416
:101A7000F8D410B541EC100443EC112451EC0404EB
:101A800053EC0524A0FB024C5FF0000EE0FB03CEFC
:101A9000E1FB02CE4CEC20440024E1FB03E444ECE7
:101AA00030E480EE200451EC5004BDE81040704753
:101AB00000B5FFF791FF02E010FE30F4F8D441ECDE
:101AC000100443EC112451EC2104A0FB01126FEA35
:101AD000820252FB100052FB12F252FB1000A0EBEC
:101AE000D07C53EC04245CFB13F153EC1524A1FBD4
:101AF000022001FB030053EC4424A2EB000050FB46
:101B00001CF24FEA111312EB017043EBE27140EA51
:101B1000515020EA915020F0070053EC7524A0FBAF
:101B2000023C53EC752400FB03CC01FB02CC53ECCC
:101B30000424ACEB824C40EA5C70A0F1010041EC63
:101B4000400480EE200451EC7004704700B5FFF7AC
:101B500043FF02E010FE30F4F8D440EC700400EED5
:101B6000010410EE210480EE200451EC3004704793
:101B700000B5FFF731FF02E010FE30F4F8D440EC7E
:101B8000600400EE010410EE210480EE200451EC0C
:101B90003004704700B5FFF71FFF02E010FE30F47D
:101BA000F8D441EC800400EE010410EE010480EE54
:101BB000400410EE1304704700B5FFF70DFF02E07C
:101BC00010FE30F4F8D441EC800400EE010410EE75
:101BD000010480EE400410EE3304704700B5FFF7B7
:101BE000FBFE02E010FE30F4F8D441EC100443ECAC
:101BF000112400EE010410EE3004C0F300707047B1
:101C000000B5FFF7E9FE02E010FE30F4F8D443EC33
:101C1000102441EC110400EE010410EE30F48CBFEE
:101C200001200020704700BF00B5FFF7D5FE02E09D
:101C300010FE30F4F8D443EC102441EC110400EE13
:101C4000010410EE30F42CBF01200020704700BFCB
:101C500000B5FFF7C1FE02E010FE30F4F8D441EC0D
:101C6000100443EC112400EE010410EE30F42CBFFC
:101C700001200020704700BF00B5FFF7ADFE02E075
:101C800010FE30F4F8D441EC100443EC112400EEC3
:101C9000010410EE30F48CBF01200020704700BF1B
:101CA00010B5044606F09EFE28B10346034A2344BD
:101CB000934200D810BD0248FEF7E6FB0000082062
:101CC000F096001006F096BE704700BF2DE9F04F69
:101CD00083B09946DDE90DAB0F9B884611469A0704
:101CE000074616D1DA453AD20C460D46ABEB0A064A
:101CF0000E4422464B46414620200134B847B442A8
:101D0000F7D12946BAF1000F08D1204603B0BDE84B
:101D1000F08F0C46BAF1000F10D00E4655460C9BC2
:101D20002E449A440191721B4B46013D41461AF8DC
:101D3000010D3446B847002DF5D101990F9B9B0743
:101D4000E3D5651AAB45E0D922464B4641462020F3
:101D50000135B8475D4504F10104F5D3D5E70C46DC
:101D6000BAF1000FD9D1D0E72DE9F04F0F9FDDF880
:101D7000248017F0020F0A9C9DF82CA00E9DDDE92F
:101D80000C9644D1F5BBB44241D207F0010B04F1EB
:101D9000FF3C4FF0300EC44404E00134A6420CF87E
:101DA00001EF01D9202CF8D1BBF1000F00F08880A1
:101DB000A5422CD904F1FF3C4FF0300EC44404E09E
:101DC0000134AC420CF801EF21D0202CF8D117F0EF
:101DD000100F0ED017F4806F54D1A64263D0A542E5
:101DE00061D0B9F1100F50D0B9F1020F56D0202CAC
:101DF00029D12024CDE90B57CDE90984BDE8F04F66
:101E0000FFF764BF17F0010B34D1B442BFD317F012
:101E1000100F1ED017F4806FE3D1002CDDD1B9F183
:101E2000100F63D0B9F1020F77D0302488F800404A
:101E30000124BAF1000F11D17E0748D52B2608F8EE
:101E400004600134D6E7264601344FF0300C08F820
:101E500006C0202CCDD0BAF1000FEDD02D2608F809
:101E600004600134CDE90B57CDE90984BDE8F04F9A
:101E7000FFF72CBFBAF1000F30D0B44205F1FF35A7
:101E800085D395E7B9F1100FB3D1BE063BD5202C11
:101E9000AFD0582608F804600134A8E7202CA8D059
:101EA0002646013407E0661EB9D0B9F1100F36D0CE
:101EB000B9F1020FC9D14FF0620C08F806C096E7DD
:101EC00017F0100FC5D017F4806F86D089E73E0752
:101ED00090D5202608F8046001348BE717F00C0F2A
:101EE00000D0013DB442FFF452AF61E7BC0612D40A
:101EF000782488F80040302488F801400224BAF1A0
:101F0000000F99D0AAE7202C3FF473AF782608F889
:101F1000046001346BE75824EBE76224E9E717F02B
:101F2000200FA4F1020C04D04FF0580E08F80CE07A
:101F30008BE74FF0780E08F80CE086E700B97047A1
:101F400001F070BB10B1D1E900311847704700BFF4
:101F50002DE9F04F97B09DED207BDDE9225B074630
:101F6000884651EC170B249C99460C920B4602466E
:101F70008DED047B0794FFF735FE002840F0F481D7
:101F8000DDE904014FF0FF326FF48013FFF73CFEF0
:101F9000002840F01B81DDE904014FF0FF32AC4B1B
:101FA000FFF76EFE002840F0EE80DDE90401A4A3F7
:101FB000D3E90023FFF764FE002840F0D380DDE979
:101FC0000401A1A3D3E90023FFF71EFE002840F07F
:101FD000C980DDE9040100220023FFF715FE002877
:101FE00040F0E88023460D9013F4806F08BF06256B
:101FF00030212B460EAAA5F1200605E0013BB34295
:1020000002F8011B00F09381092BF7D81E46ED1A48
:10201000DDE90401FFF7C2FD8E4B044603EBC60366
:1020200093ED007B8DED087BFFF794FD02460B4698
:10203000DDE90401FFF706FDDDE90823FFF716FDE2
:1020400002460B46CDE90A23FFF7BAFD8246FFF7A9
:1020500093FD02460B46DDE90A01FFF7F3FC024659
:102060000B46CDE90A2300227B4BFFF709FE00282F
:1020700000F0FE800AF1010A5046FFF77DFD02469E
:102080000B46DDE90801FFF7D3FD10B14FF0000A60
:102090000134002E00F0FD80681E0EABDFF8CCC1CD
:1020A00018440FE0ACFB0A21C90801EB8102AAEB3E
:1020B00042023032BAF1090F00F8012F40F21C81C0
:1020C0008A461D46202D05F1010306F1FF36E9D1B0
:1020D0002025691E0EAB6148194410E080FB0462A4
:1020E000C3EBA20303EB8302A4EB420404F130022E
:1020F00001351C4601F8012F002B00F0EB80202D4C
:102100004FEAE473EAD1079B03F00303012B18D1D4
:10211000BBF1000F15D00D9B002B00F00A810BF1D5
:10212000FF3BBBF1200F0CD96B1E0EA930220B44D4
:1021300005E001355D4503F8012F80F0D180202DA9
:10214000F7D1079B0EACCDE902B341464B4638466A
:102150000C9A01950094FFF7B9FD8246504617B0DE
:10216000BDE8F08F079B9DED047BCDE923B341468D
:102170004B4638460C9A8DED207B229517B0BDE872
:10218000F04F00F045B9610723464CBF04230323F9
:102190004146219338464B46079A48BF304CCDE91B
:1021A00022B258BF2F4C0C9A209417B0BDE8F04FC4
:1021B000FFF78CBDDDE9042300200021FFF742FC7E
:1021C0000123CDE904010D9323460DE723469C0727
:1021D00040F0AA80BBF1040F40F2A6800C9B1D4684
:1021E0001C1F04EB0B0A2A464B46414620200135B2
:1021F000B847AA45F7D155461B4C261F14F8010DC8
:102200002A464B464146B847B44205F10105F5D18F
:10221000079B0AF1040A9807A0D50C9CAAEB0403BB
:102220009B459BD952464B46414620200AF1010A64
:10223000B847AAEB04035B45F4D38FE7AFF3008004
:102240000000000065CDCD410000000065CDCDC18E
:10225000FFFFEF7F909B00100000E03F676666661F
:102260003C9700104497001050970010CDCCCCCC78
:102270000022DDE90A01634BFFF7C6FC00287FF46A
:1022800008AFBAF1000F6AD10AF1010A002E7FF4FB
:1022900003AF2046FFF75EFC02460B46DDE9040172
:1022A000FFF7D0FB02460B46CDE904230022554B35
:1022B000FFF7AAFC00287FF40CAFDDE9040100223F
:1022C000504BFFF7DDFC00287FF403AF013424F00E
:1022D0000104FEE6079B03F00303012B00F082805C
:1022E000202D3FF42EAF0D9B7BB32D220DEB05036C
:1022F00083F83820013524E7202B3FF4E9AE0EAAFD
:1023000015441E44302204E0202B05F8012F3FF431
:10231000DFAE9E4203F10103F6D12E220DEB060340
:1023200083F83820751CD4E6DDF830A063E720255B
:102330006EE6079B13F00C0F50D00BF1FF3BAB4543
:102340003FF6F2AE202D3FF4FCAE079B5A0701D5B5
:102350002B22CBE71B077FF5F4AE2022C6E71AF04D
:10236000010F3FF496AE8FE7A60734D1BBF1030F00
:1023700031D90C9B1D46DC1E04EB0B0A2A464B464A
:10238000414620200135B8475545F7D155461E4CEA
:10239000E61E14F8010D2A464B464146B847A642B0
:1023A00005F10105F5D1079B0AF1030A9D077FF5A9
:1023B000D5AE0C9CAAEB04039B457FF6CFAE5246EC
:1023C0004B46414620200AF1010AB847AAEB040314
:1023D0009B45F4D8C2E6DDF830A0D7E7AB453FF621
:1023E000A3AEAEE6BBF1000F3FF47AAF0D9B002B1E
:1023F0009FD00BF1FF3B5D45FFF496AE202D7FF49F
:1024000074AF9EE60000E03F4B9700100000000014
:102410002DE9F04F9FB02A9EDDE9284507469346F7
:102420000891099322462B46204629460E96DDE95F
:102430002BA6FFF7D7FB002840F0BE802046294698
:102440004FF0FF32784BFFF71BFC002840F0B480C0
:10245000204629464FF0FF326FF48013FFF7D4FB7C
:10246000002840F0A9802046294600220023FFF7DB
:10247000CBFB002840F0D581CDE90A45DDE90A23F0
:102480009046994606F4006216F480630F92139307
:1024900040F0A18058EA090340F0CA80002A40F0C9
:1024A000E38106230E9316F00202109240F0D481CD
:1024B0005346042B38BF04230C920422043B12928F
:1024C0000F932046294600220023FFF79DFB00289A
:1024D00040F0F3819DED0A7B0F9B5A4603930E9BC0
:1024E0008DED007B029326F4006304933846099B2C
:1024F0000899FFF72DFD024616F0200F099B089959
:102500000CBF6520452002F10108B8470C9A129BC8
:1025100016AC5D1E82EAE273A3EBE273D10F0026D4
:1025200022469946DFF804C101E0202E10D0CE46A5
:10253000ACFB0930C00800EB8003A9EB4303303348
:10254000BEF1090F814606F1010602F8013BECD805
:102550000523002006930A2305950094099D089CF5
:102560004246CDE90330CDE901612B46214638468C
:10257000FFF7FAFB109A8046D2B1A0EB0B06B245EA
:1025800016D90BEB06022B46214620200136B84710
:10259000B245F6D80BF1FF335344CBF10102A3EB64
:1025A00008034244924538BF002308F101089844CB
:1025B00040461FB0BDE8F08F5A463846CDE9284561
:1025C000CDE92BA60E9C099B08992A941FB0BDE863
:1025D000F04FFFF7BDBC58EA09032BD1002A3FF4A6
:1025E00062AF00230C930E9B0C9A934200F3B981C7
:1025F0004FF000082046294600220023FFF704FB85
:10260000002840F013819DED0A7B26F4006646F415
:1026100080668DED287B5A463846CDE92A8A099B8B
:1026200008992C96D2E700BFFFFFEF7FCDCCCCCC32
:1026300006230E93C9F30A50A0F2FF30FFF78AFA7F
:10264000C1A3D3E90023FFF711FAC1A3D3E9002303
:10265000FFF7E4F9C9F31309CDE90C0149F07F5103
:1026600040460022B24B41F44011FFF7EBF9A4A31E
:10267000D3E90023FFF7FAF902460B46DDE90C0126
:10268000FFF7CCF9FFF78AFA0C90FFF763FA9EA3E5
:10269000D3E9002380468946FFF7E8F90022A54BDD
:1026A000FFF7BCF9FFF77AFA034649464046129312
:1026B00097A3D3E90023FFF7D9F9804612988946FA
:1026C000FFF748FA94A3D3E90023FFF7CFF90246B6
:1026D0000B4640464946FFF7B5F902460B46804691
:1026E0008946FFF7C3F942464B46CDE91001404603
:1026F0004946FFF793F90022CDE91401DDE9100105
:102700008D4BFFF7D9F900228C4BFFF787F9024672
:102710000B46DDE91001FFF7CFF90022884BFFF7E8
:102720007DF902460B46DDE91001FFF7C5F9424687
:102730004B468046894600204FF08041FFF782F9E2
:1027400002460B4640464946FFF768F902460B46EB
:10275000DDE91401FFF7B0F900227A4BFFF75EF9CB
:10276000129B002203F2FF3C4FEA0C53FFF77EF965
:1027700080468946DDE90A0142464B46FFF744FAA6
:1027800050B10C9B4046013B49460C9300226B4BD9
:10279000FFF792F9804689460C9A43466332C62A6F
:1027A00006F00202109249460F9A2CD8002A5ED0F9
:1027B000042212920B433FF416AFDDE90A0158A33D
:1027C000D3E90023FFF748FA48B1DDE90A0156A32F
:1027D000D3E90023FFF718FA00287FF404AF0E9B1B
:1027E000002B50D0139A002A7DD0013B0E93129BF0
:1027F0009A4505D9109B002B00F0AE800223109360
:1028000000230F9344E022BBBAF1050F4FD906F025
:102810000203002B49D105231293AAF105030F935C
:102820003AE005F100430A940B9327E626F400668C
:1028300046F4806638462C96DDE90A67344607F18F
:1028400000455A46CDE92A8ACDE92845099B0899D1
:10285000BCE605221292ADE700230222CDE90F3239
:1028600004220C9312922CE64FF00508C2E6BAF14E
:10287000040F1FD9109B002B78D104231293AAF1C7
:1028800004030F9304E0129B9A4531D80E9B0F93DB
:102890000C9B002B3FF415AEDDE90A0142464B4686
:1028A000FFF70AF9CDE90A010BE60223109305238D
:1028B0001293F1E704231293EAE7DDE90A45A04603
:1028C0000F9B05F1004903930E9B5A46029326F491
:1028D000006304933846CDE90089099B0899FFF706
:1028E00037FB024608E6129B9A4544D80F92CFE781
:1028F000109B8BB30E9B0F9302231093C8E700BF6E
:1029000061436F63A787D23F71A379094F930A4050
:102910001655B5BBB16B0240EF39FAFE422EE63FC9
:102920002D431CEBE2361A3F0000000080842E414C
:102930000000F83F0000E03F00002C400000244071
:10294000000018400000F03FFB799F501344D33F34
:10295000B3C8608B288AC63F129BAAEB03030F9370
:1029600096E7A3EB020808F1FF3843E6042312932D
:10297000022310938CE7109B002BEDD002230F92C3
:10298000109385E72DE9F04F9BB0249C954D0A9458
:10299000954CB1F1000A18BF834625601878934C16
:1029A000914608BFA3460993002800F093824FF098
:1029B00000080AE042464B46514608F10108D84754
:1029C000099B1878002800F0CE80099B252803F188
:1029D00001030993EED11C460023224612F8010B95
:1029E000A0F1200110290AD8DFE801F04009093CD4
:1029F0000909090909090938093409093000A0F150
:102A000030010929099440F28A802A2800F0F080D8
:102A100000252E2800F096800026A0F168011229DA
:102A20002DD8DFE811F049012C0043012C003801BA
:102A30002C002C002C002C002C002C002C0027003B
:102A40002C002C002C002C002C002700144643F0F6
:102A50000103C2E7144643F00203BEE7144643F005
:102A60000403BAE7144643F01003B6E7144643F0F4
:102A70000803B2E70999487843F480730132672864
:102A800009927ED8242840F2C180A0F12502422A72
:102A900000F2BC80DFE812F05001BA00BA00BA00C0
:102AA000BA00BA00BA00BA00BA00BA00BA00BA0056
:102AB000BA00BA00BA00BA00BA00BA00BA00BA0046
:102AC000BA00BA00BA00BA00BA00BA00BA00BA0036
:102AD000BA00BA00BA00BA00190137011901BA00E8
:102AE000BA00BA00BA00BA00BA00BA00BA00BA0016
:102AF000BA00BA00BA00BA00BA00BA00BA00BC0103
:102B0000BA00BA00BA00BA00BA00BA00BA00BA00F5
:102B1000BA00BC015801BC01190137011901002597
:102B200000E0013205EB850500EB45051078303DEE
:102B3000A0F130010929F4D92E28099202F10102ED
:102B40007FF46AAF099943F4806348781146A0F195
:102B50003006092E40F221812A2800F02F810992A7
:102B60000026013259E74446C14501D809F1FF3832
:102B70004B46424651460020D84720461BB0BDE890
:102B8000F08FA0F16902D2B20F2A3FD8012149F299
:102B900041079140394040F0F3800A2A3DD0072A8E
:102BA00034D10A9D55F8042B002A00F0138143F01C
:102BB000210012AB1F460B9303E0202900F0148183
:102BC0001A4602F00F042346092C94BF30333733E2
:102BD0000F2A07F8013B01F101014FEA1213ECD86B
:102BE00002E100BF85290010A81A0020C91C0010AE
:102BF0000A99099851F8045B4078002DCDE9092124
:102C0000BCBF43F002036D42013202E742464B462D
:102C1000514608F10108D847D2E60A99002E51F82A
:102C2000047B18BF3246387808BF4FF0FF320028C7
:102C300000F07B83BC18A4463A4604E012F8014F2A
:102C4000002C00F03F819445F8D16446E41B5A05FE
:102C500040F12281B44228BF344613F0020300F051
:102C600088820223CDE90A5142461D46464408E0C7
:102C70004B465146D84717F8010F08F1010810B12B
:102C800042464645F4D12B460B990A9D002B40F055
:102C900041810A9194E6099948786C287FF4ECAE5A
:102CA0000A46887843F440730332E8E6099943F40E
:102CB000007348780132E2E609994878682800F004
:102CC000038143F080030132D9E6672800F0D98000
:102CD000472800F0DC80452800F0DB80CDE9035375
:102CE0000A9B0296073323F007031C464246F4E88A
:102CF00002674B4651465846CDE900670A94FFF7F4
:102D000087FB80465CE6462808BF43F02003CDE9F8
:102D100003530A9B0296073323F007031C464246DF
:102D2000F4E802674B4651465846CDE900670A94DD
:102D3000FFF70EF9804643E642464B4651462520B2
:102D400008F10108D8473BE60A9A990702F1040402
:102D500008F1010640F1C68010784B4642465146C4
:102D6000D847012D88BFA84440F2BD8132464B466A
:102D7000514620200136D8474645F7D10A941FE630
:102D80006F2800F0818040F24882782800F090811E
:102D90000A2723F01003BC4641E0002606EB860616
:102DA00000EB4600A0F1300611F8010FA0F130024F
:102DB000092AF3D90A46099101322EE6DDE90921F3
:102DC00051F8046B9078023209920A91013226EA96
:102DD000E67622E623F0100013F4806240F0210032
:102DE0003FF4E7AE12AB0B930B9B069000930823C6
:102DF0001020059300234246CDE9023001914B4655
:102E0000514658460496FEF7AFFF0A958046D7E52F
:102E1000582862D0622840F08F800227BC4613F405
:102E2000806000F0DD8023F00D0313F4007240F0A9
:102E300081810A990F1D13F4807140F037825C067E
:102E40000A9A40F13B811278002A40F04E8123F02B
:102E50001003002800F04981114612AA0B92CDE917
:102E60000553CDE903C601910B9B42460093002315
:102E70005146029358464B46FEF776FF0A97804626
:102E80009EE543F4006329E70827BC46C7E743F4FF
:102E9000006343F0200321E713F0020300F08E816A
:102EA00002230A951E460D4642464B465146D847D8
:102EB00017F8010F08F101080028F5D1294633461B
:102EC0000A9DE3E6D41BC2E60A46887843F0C003B5
:102ED0000332D4E50446804646E6102743F020033B
:102EE000BC469CE7012D40F2F880464608F1FF37CA
:102EF0002F4432464B46514620200136D847BE4229
:102F0000F7D10A9B3246187851464B46D847A84419
:102F10000A9455E54646A5427FF6BBAEA844A8EB09
:102F200004080C4632464B46514620200136D8470D
:102F30004645F7D12146ACE613F4806200F0BB8031
:102F40004FF4806223F0110C1CF400770A9B4AD1E5
:102F50001CF4807003F1040440F034811CF0400F35
:102F600040F0A3801CF0800F00F0D381B3F9001073
:102F700081EAE177A7EBE177BFB2CB0F002900F040
:102F800056813A4612A90F46DFF8D8E30B910A930F
:102F90000C9501E020280FD01546AEFB0213DB088C
:102FA00003EB8301A2EB41013031092D1A4600F1F8
:102FB000010007F8011BEDD80A9B0C9DCDE9055CCB
:102FC000CDE9010304960B9B424600930A23514628
:102FD000039358464B46FEF7C7FE0A948046EFE43B
:102FE00023F00C0321E7073323F0070319460846B3
:102FF0005B6850F8081BDF0F0A9051EA030062D1AA
:10300000002A40F09F811346114612AACDE90C75A3
:1030100000201546CDE90E68DFF848E30B9201E089
:1030200020282DD05A1842F10002AEFB027828F079
:10303000030707EB9807D21B1E469B1A61F1000796
:103040000C464FF0CC3101FB03F10EFB0711A3FB43
:103050000E731944052307F00108A8FB03389B18D9
:103060000A2E03F130034FEA570774F1000405F804
:10307000013B00F1010047EAC1734FEA5101CFD291
:10308000DDE90C75DDE90E680B9B424600930A23CF
:10309000CDE9055CCDE90107049603934B46514603
:1030A0005846FEF761FE80468AE419780F4664E7C9
:1030B0001027BC46B3E623F0100C45E71C064CBFB6
:1030C00012881268C0E60A46191E01DB13469CE707
:1030D0005242134661EB410197E713465146187877
:1030E00042464B46D847B04648E613F0200F14BF7F
:1030F0004120612012ACA6460B940A93A0F10A0469
:103100000C9502E0202912D02A46B2FBFCF50CFBFC
:103110001520C3B2092803F130008ABF1B19C3B2BE
:10312000DBB262450EF8013B01F10101EAD20A9BD4
:103130000C9D94E60A9A073222F00702516852F871
:10314000084B8E460A9254EA010276D123F010030E
:10315000002872D00022114612AA0B92CDE9055325
:103160000B9B424600930023CDE903C601910293D5
:1031700094E7A54298BF01347FF674AD4FF48063A5
:10318000CDE90A7505EB08021F460D46141B4246A1
:103190004B465146202008F10108D847A045F6D1FA
:1031A0003B460A9F294638780B9D6C1C00283FF44B
:1031B00070AD002B3FF475AE002353E5A542DFD878
:1031C00001346EE61968CB0F002900F0A88081EA6F
:1031D000E172A2EBE17212A90846DFF888E10B91D7
:1031E0000A930C9501E0202F0FD01546AEFB021379
:1031F000DB0803EB8301A2EB41013031092D1A46B4
:1032000007F1010700F8011BEDD80A9B0C9DCDE9E1
:10321000055CCDE901730496D5E6692823F0100C0E
:1032200040F08C8013F480623FF48EAE88E6002A72
:103230003FF4A8AE12AA0B92C0E613F0200F14BF01
:1032400041226122002012A90A3ACDE90E68CDE997
:103250000C35CDF844B006468846754693460B912A
:10326000CDF840C003E0202E17D004460D46294675
:103270003A460023204606F0B3F9D2B2092A02F1F9
:10328000300388BF02EB0B03BC42DBB275F10005D3
:1032900008F8013B06F10106E5D23146DDE90C35BF
:1032A000DDE910CBDDF83C800E9E57E70A990968EE
:1032B00051B923F0100338B112A90B91CDE9055390
:1032C000CDE903C60192CFE513F0200F14BF4120D2
:1032D000612012ACA6460B940A93A0F10A040C9547
:1032E00002E0202A12D02946B1FBFCF50CFB151098
:1032F000C3B2092803F130008ABF1B19C3B2DBB285
:1033000061450EF8013B02F10102EAD20A9B0C9DD5
:10331000D4E7196881EAE177A7EBE1772DE6002A87
:103320003FF459AF12AA0B9271E713F480640DD0E9
:1033300013F0020412D004464646ECE50A27634621
:10334000BC466CE512AB00200B939DE613F0020324
:103350007FF4E0AD002D7FF413AF9AE4002D7FF4ED
:103360000DAF96E4CDCCCCCC70B594461E46054648
:103370000C4684B04FF0FF32634602A90096034822
:10338000CDE90254FFF7FEFA04B070BD451F0010EE
:1033900010B5094B84B01C684CB1034600914FF046
:1033A000FF3203A90548A047012004B010BD00F07A
:1033B0007BF9204604B010BDA81A00203D1F001064
:1033C00000BEFDE7074A0346106838B106490344CA
:1033D0008B428CBF4FF0FF301360704703490846A3
:1033E0001160F3E7A41A002000000820681C0020E8
:1033F00008B5FFF7E5FF00BF38B5064C064DFEF7F0
:1034000001FAAC4204D254F8043B9847AC42FAD3D8
:1034100038BD00BF609600106C9600100368084627
:10342000114618472DE9F0411546427D074688466A
:10343000002A46D0002D1DDD0B780A2B23D0012D4C
:103440004FF0000C18D04646012416F8012F2146F3
:103450000A2A04F1010422D0A542F6D165450BDC0D
:1034600008EB050313F8013CA3F10D03B3FA83F352
:103470005B093B75BDE8F0813B68A5EB0C0108EBEF
:103480000C009847ECE7037D002BD8D1036802219C
:103490000F489847012DE3D04FF0010CD3E716F801
:1034A000013C0D2BD8D08C4508EB0C00A1EB0C0196
:1034B00001DA3B689847022105483B689847A446D3
:1034C000CAE7294640463B68BDE8F041184700BFBF
:1034D000E09B00100B682DE9F041802B0D4606465D
:1034E00005D05A1C2B442A601E71BDE8F0810F4B99
:1034F0001C68A4B10E4F01F1040801E0246974B105
:103500002368002BFAD03B680BB1A342F6D12046CA
:1035100041462A68FFF786FF2469002CF0D100237A
:1035200001222B442A601E71BDE8F081981A002008
:10353000A01A00202DE9F04782B00D4691461C46A6
:103540000646FEF73FF84FF0FF3C6FF000472E4A6B
:10355000821841F10003944577EB03013CBF6246BA
:103560003B462A4806F044F86B1C804640D00CB31A
:10357000274F284B1C68B4B1B9F1000F1CD1DFF8FC
:103580009C9001E0246974B12368002BFAD0D9F82B
:1035900000300BB19C42F5D120462A463146B8474F
:1035A0002469002CF0D1B8F1000F26D1284602B0D2
:1035B000BDE8F087184FDCE74FF00A0ADFF85C90AF
:1035C00002E02469002CEED02368002BF9D0D9F852
:1035D00000300BB1A342F4D12A4631462046B84709
:1035E000012220460DF107018DF807A0B847E8E752
:1035F000304605F075FE0546B9E7044805F0F4FFCE
:10360000284602B0BDE8F08740420F00880D002038
:1036100025340010981A00201D340010A01A002034
:1036200000207047F0B583B006468DF80700FDF71F
:10363000C9FF4FF0FF356FF00044174A821841F17F
:103640000003954274EB03013CBF23462A4613480E
:1036500005F0CEFF124B07461C689CB1114D01E0EE
:1036600024697CB12368002BFAD02B680BB19C42F3
:10367000F6D1204601220DF10701FFF7D3FE2469A0
:10368000002CEFD117B9304603B0F0BD034805F068
:10369000ABFF304603B0F0BD40420F00880D002064
:1036A000981A0020A01A002038B5044605F018FE2C
:1036B000012305461A4620462946FFF73BFF084BE3
:1036C0001C682CB163682BB198472469002CF9D190
:1036D000284638BD2469002CF4D1284638BD00BFE7
:1036E000981A00202DE9F041A2B004460D46FDF7DE
:1036F00069FF4FF0FF376FF00046264ADFF8A480DD
:10370000821841F10003974276EB03013CBF3A4631
:103710003346214805F06CFF00272B46224606461B
:1037200001A91E480197FFF71FFE019B0546D8F827
:103730000040C3B1002C2BD0194F01E0246974B1B3
:103740002368002BFAD03B680BB1A342F6D1204688
:10375000019A02A9FFF766FE2469002CF0D100232C
:10376000D8F8004001932CB1636843B198472469AD
:10377000002CF9D12EB9284622B0BDE8F081246989
:10378000F1E7054805F030FF284622B0BDE8F0819A
:103790000194EFE740420F00880D0020D53400105F
:1037A000A01A0020981A00200FB400B583B004A915
:1037B00051F8040B0191FFF795FF03B05DF804EB9E
:1037C00004B07047F8B504460D46EFF3108772B6A3
:1037D0000C4B9B6853F82060B14204D00A4B9E42C8
:1037E0000BD2FEF709F8074B9B6843F82450BFF350
:1037F0005F8F87F310883046F8BD044B9E42F2D3AA
:10380000EFE700BF00ED00E0100100101C01001008
:10381000014B1860704700BF4411002003460A4660
:103820000148194602F0EEBDAC110020014B1868AA
:10383000704700BF4411002030B583B0FFF7F6FF9A
:1038400030B103F057F80446002074B103B030BD26
:10385000684603F0ADFA69460D4803F0AFFA98B137
:103860000B48FFF7D5FF0A48EBE7FFF7DFFF0546F8
:1038700003F05CF8064B9D4206D12B6828465B6B33
:1038800098472046FFF7C4FF4FF0FF3003B030BD2C
:10389000900D002000B545F247308BB0FDF76EFF6C
:1038A00001220346092101A89847DDE903320449B2
:1038B00012BA1BBAC1E900230BB05DF804FB00BFCC
:1038C0007C1B00200346024A03CA186059607047F7
:1038D0007C1B002008B50520FDF7F8FE6421030CD1
:1038E00001FB03F3034A5B08A2FB03231B0A033B10
:1038F000FDD208BD1123970838B5D0F84C48A4B1C3
:103900002168054631B1D4E90132154802F0F8FECC
:103910000023236094F90C00002813DA94F90D00B9
:10392000002803DA0023C5F84C3838BD02F024FF24
:1039300094F90D0002F00AFFFF2363730023C5F81A
:103940004C38F2E702F018FF94F90C0002F0FEFE8A
:10395000FF2394F90D0023730028E3DBE6E700BFA3
:10396000E49B001006232DE9F04F87B00193012658
:103970004FF6FF734FF0180800253F4C0296CDF824
:1039800000808146A381C0F84C4821463B48256011
:10399000231D04F1080202F0FBFD002866D0D4E9E3
:1039A0000131374803F1050C826FDB01D243354FFB
:1039B00043EA0C3323F0C04302F030020593BA67A8
:1039C000806F4FF4003BC0434FF4403A00F00100D9
:1039D000B867206801EB410CD0F8687100F5005E13
:1039E000C7F1180706FA07F7CEF83870059F00EB05
:1039F000CC0CCCF8C8B0CCF8D0A0CCF8CC70224F0E
:103A00003346CCF8DC701D22009602F07BFD216865
:103A1000404601F12F4101F56001090D0631C9B29F
:103A2000FCF774FC324629464046FCF78DFC3146D3
:103A30004046FCF79DFC4EF20101A368226803EBAF
:103A4000430302EBC302C2F8D810284602F084FEFA
:103A50002073284602F080FE237B40B26073184337
:103A6000030603D4284607B0BDE8F08F4846FFF7A9
:103A700043FF6FF00500F6E760110020E49B0010A3
:103A8000008003400090034018771C242DE9F04F7C
:103A900087B016461F460391002900F01981D0F81F
:103AA0004C481820216801F12F4101F56001090DF2
:103AB0000631C9B2FCF72AFC21681D2001F12F4113
:103AC00001F56001090D0631C9B2FCF71FFC0122A6
:103AD00000211D20FCF738FC19234FF0000242ECB6
:103AE00040302068A168039B002F00F0F7804FF062
:103AF0000108002B08BF3B464FF0004CD0F800B047
:103B0000039308FA01F301EB41022BEA0303D4F813
:103B1000049000EBC20E0360DEF8CC3009F1050A18
:103B20006FF3D01343EA0A330EF5865243EAC91302
:103B3000CEF8CC30C2F810C00023C2F810C04FF04D
:103B40008072CDE9002302F0A9FCD4E9003110987D
:103B500001F01F010591811BA268C900481E0146A2
:103B6000101D049002EB420003EBC005101D03F58D
:103B7000005A08FA00F0CAF8000046F2200002F1EC
:103B8000080E4FEAC60C03EB820908FA0EFE0CF190
:103B9000FF3CCAF800E0C9F810C0C5F8D80046F2EA
:103BA00040004FF0A04BC9F810100599C5F8D80097
:103BB000C5F8D81094F90C90DDE9035108FA09F022
:103BC0004FEA891ECBF864040EEB0B0CDCF80C00FA
:103BD0004001FBD44FF0010A94F90D8003954FEAA0
:103BE000881C0AFA08FA0CF1A040CBF864A48246BB
:103BF000039DDAF80C004001FBD40EF1A04ECEF884
:103C000000500395012503F12F40DFF818A200F5BD
:103C10006000000D0AEA49390AEA483A02EBC00896
:103C200049EA4848049101EBC00010994AEA404A29
:103C300048F080704FEA9608C8EB910904999540C6
:103C40004AF0807203EB810A0CF1A04C0AF11001DA
:103C500040F01900CEF804A042F04902CEF80880E6
:103C6000CEF80C00CCF80010B919CCF80410CCF840
:103C70000890CCF80C201A6815431D6094F90C20AC
:103C8000920102F1A04213695801FCD494F90D305D
:103C90009B0103F1A043196911F08061FBD1324609
:103CA000384605F0F5F92068A1684AF2030401EBF3
:103CB000410300EBC3004FF001021923C0F8D840C4
:103CC00042EC4030FFF706FE002007B0BDE8F08F61
:103CD000002B7FF4E4AE6FF00400F6E7002BE4D095
:103CE0004FF001084FF0004C036808FA01FB01EBAC
:103CF000410223EA0B03D4F8049000EBC20E0360E8
:103D0000DEF8CC3009EB080A6FF3D01343EA0A332C
:103D10000EF5865243EAC913CEF8CC30C2F810C073
:103D20000023C2F810C04FF08072CDE9002302F0EA
:103D3000B5FBD4E90031A26801F01F010491101D08
:103D400002EB420103EBC10503F5005A08FA00F14A
:103D5000CAF8001046F2200102F1080E4FEAC60C24
:103D600008FA0EFE0CF1FF3C03EB8209CAF800E0F2
:103D7000C9F810C0C5F8D81046F240014FF0A04B6A
:103D8000C9F81070049FC5F8D810C5F8D87094F918
:103D90000CC0039D08FA0CF14FEA8C1ECBF864149A
:103DA0000EEB0B07F9684901FCD40EF1A0410D6040
:103DB0000395012503EB8000486003F12F4000F5D7
:103DC0006000000D02EBC0009540164AB60802EAFA
:103DD0004C3242EA404242F0807242F019028E6058
:103DE000CA601A682A431A600B695B01FCD401227D
:103DF000A368216818339A408A608B681342FCD00C
:103E0000012300262068A16805688B4025EA030588
:103E1000056018220123009602F074FB2068A16857
:103E200043E700BFFDFF01FC10B51720FCF708FBBE
:103E30004FF00104172044EC440000220121FCF75C
:103E400083FA1820FCF7FCFA182344EC44304FF0B6
:103E5000000242EC40301920FCF7F2FA192344EC3E
:103E6000443044EC403010BD38B517254FF0000405
:103E700044EC40501420FDF7B3FA4FF0010343EC3B
:103E80004050FA20FDF7ACFA1820FCF7D9FA1823B5
:103E900044EC443038BD00BF30B5082300250E4C3B
:103EA00085B004EAC22444EA0174009344F08044DB
:103EB000042229466B4444F00404039564BA029436
:103EC000FFF7E4FD18B9039840BA05B030BD6FF0B4
:103ED000040005B030BD00BF00F8FF0F944630B5B8
:103EE0000D460422114C89B004EACC2444EA05743E
:103EF00044F0804414430294A5F10104B4FA84F41C
:103F0000640994400834002102AB0094FFF7BEFD21
:103F100040B9012D14BF012305230DEB83039868DD
:103F200009B030BD6FF0040009B030BD00F8FF0FDC
:103F3000944630B50D46134C89B004EACC2444EACB
:103F4000057444F0804444F002040294A5F1010495
:103F5000B4FA84F40422640994400834002102ABCA
:103F60000094FFF793FD40B9012D14BF01230523F1
:103F70000DEB8303986809B030BD6FF0040009B001
:103F800030BD00BF00F8FF0F944630B50D46134C0E
:103F900089B004EACC2444EA057444F0804444F037
:103FA00001040294A5F10104B4FA84F40422640922
:103FB00094400834002102AB0094FFF767FD40B93C
:103FC000012D14BF012305230DEB8303986809B06D
:103FD00030BD6FF0040009B030BD00BF00F8FF0F26
:103FE0002DE9F04F5BBA04466E4DD4F84C4805EA13
:103FF000C22545EA0175216887B001F12F4101F51D
:104000006001090D0631182045F04042C9B242F066
:10401000040252BACDE90423FCF778F921681D2087
:1040200001F12F4101F56001090D0631C9B2FCF71C
:104030006DF9012200211D20FCF786F900271923C4
:1040400047EC403001254FF000462068A168D0F8C9
:10405000009005FA01F201EB410329EA0202D4F8CB
:1040600004E000EBC30C0260DCF8CC200EEB05088A
:104070006FF3D01242EA08320CF5865342EACE12B0
:10408000CCF8CC201E614FF080721E6100234FF0EF
:104090003F0A46F22009CDE9002302F0FFF9D4E9F6
:1040A0000031A26801F01F010391101D02F1080602
:1040B00002EB420105FA06F603EBC10103F5005ECF
:1040C00003EB820C05FA00FBCEF800B0CEF80060DE
:1040D000CCF810A0C1F8D890CCF8107046F2400788
:1040E0004FF0A048039EC1F8D870C1F8D86094F989
:1040F0000C60B540B701C8F8645407EB0805E968DF
:104100004901FCD44FF0010C07F1A041022703F153
:104110002F4505F560052D0D02EBC5050CFA02FCD7
:10412000214A03EB800002EA463242EA454242F06D
:10413000807242F0190204AD0D6048608F60CA6061
:104140001A684CEA02021A600B695B01FCD4012276
:10415000A368216818339A408A608B681A42FCD0A1
:10416000012700252068A168066807FA01F326EAFE
:10417000030606603B461822009502F0C3F94AF296
:104180000300A368226803EB430302EBC303192176
:10419000C3F8D80047EC4010FFF79CFB284607B057
:1041A000BDE8F08F00F8FF0FFDFF01FC2DE9F04F97
:1041B000744C87B004EAC22444EA017444F04044D9
:1041C00044F004040129CDE9044309D1082182689F
:1041D000C0F85048C0F85438C0F85C28C0F85818E7
:1041E000D0F84C4818202168002701F12F4101F533
:1041F0006001090D0631C9B2FCF788F821681D205D
:1042000001F12F4101F56001090D0631C9B2FCF73A
:104210007DF8012200211D20FCF796F8192347ECB8
:10422000403001254FF000462068A168D0F800908A
:1042300005FA01F201EB410329EA0202D4F804E095
:1042400000EBC30C0260DCF8CC200EEB05086FF32A
:10425000D01242EA08320CF5865342EACE12CCF86C
:10426000CC201E614FF080721E6100234FF03F0A88
:1042700046F22009CDE9002302F010F9D4E900311B
:10428000A26801F01F010391101D02F1080602EB64
:10429000420105FA06F603EBC10103F5005E03EBEC
:1042A000820C05FA00FBCEF800B0CEF80060CCF826
:1042B00010A0C1F8D890CCF8107046F240074FF02B
:1042C000A048039EC1F8D870C1F8D86094F90C607A
:1042D000B540B701C8F8645407EB0805E96849011F
:1042E000FCD44FF0010C07F1A041022703F12F4548
:1042F00005F560052D0D02EBC5050CFA02FC224AFE
:1043000003EB800002EA463242EA454242F0807204
:1043100042F0190204AD0D6048608F60CA601A68EF
:104320004CEA02021A600B695B01FCD40122A3680B
:10433000216818339A408A608B681A42FCD00127A2
:1043400000252068A168066807FA01F326EA03063B
:1043500006603B461822009502F0D4F84AF20300AA
:10436000A368226803EB430302EBC3031921C3F8DC
:10437000D80047EC4010FFF7ADFA284607B0BDE87B
:10438000F08F00BF00F8FF0FFDFF01FC2DE9F04F9B
:10439000744C87B004EAC22444EA017444F04044F7
:1043A00044F002040129CDE9044309D108218268BF
:1043B000C0F85048C0F85438C0F85C28C0F8581805
:1043C000D0F84C4818202168002701F12F4101F551
:1043D0006001090D0631C9B2FBF798FF21681D2065
:1043E00001F12F4101F56001090D0631C9B2FBF75A
:1043F0008DFF012200211D20FBF7A6FF192347ECAA
:10440000403001254FF000462068A168D0F80090A8
:1044100005FA01F201EB410329EA0202D4F804E0B3
:1044200000EBC30C0260DCF8CC200EEB05086FF348
:10443000D01242EA08320CF5865342EACE12CCF88A
:10444000CC201E614FF080721E6100234FF03F0AA6
:1044500046F22009CDE9002302F020F8D4E900312A
:10446000A26801F01F010391101D02F1080602EB82
:10447000420105FA06F603EBC10103F5005E03EB0A
:10448000820C05FA00FBCEF800B0CEF80060CCF844
:1044900010A0C1F8D890CCF8107046F240074FF049
:1044A000A048039EC1F8D870C1F8D86094F90C6098
:1044B000B540B701C8F8645407EB0805E96849013D
:1044C000FCD44FF0010C07F1A041022703F12F4566
:1044D00005F560052D0D02EBC5050CFA02FC224A1C
:1044E00003EB800002EA463242EA454242F0807223
:1044F00042F0190204AD0D6048608F60CA601A680E
:104500004CEA02021A600B695B01FCD40122A36829
:10451000216818339A408A608B681A42FCD00127C0
:1045200000252068A168066807FA01F326EA030659
:1045300006603B461822009501F0E4FF4AF20300B2
:10454000A368226803EB430302EBC3031921C3F8FA
:10455000D80047EC4010FFF7BDF9284607B0BDE88A
:10456000F08F00BF00F8FF0FFDFF01FC2DE9F04FB9
:10457000744C87B004EAC22444EA017444F0404415
:1045800044F001040129CDE9044309D108218268DE
:10459000C0F85048C0F85438C0F85C28C0F8581823
:1045A000D0F84C4818202168002701F12F4101F56F
:1045B0006001090D0631C9B2FBF7A8FE21681D2074
:1045C00001F12F4101F56001090D0631C9B2FBF778
:1045D0009DFE012200211D20FBF7B6FE192347ECAA
:1045E000403001254FF000462068A168D0F80090C7
:1045F00005FA01F201EB410329EA0202D4F804E0D2
:1046000000EBC30C0260DCF8CC200EEB05086FF366
:10461000D01242EA08320CF5865342EACE12CCF8A8
:10462000CC201E614FF080721E6100234FF03F0AC4
:1046300046F22009CDE9002301F030FFD4E9003132
:10464000A26801F01F010391101D02F1080602EBA0
:10465000420105FA06F603EBC10103F5005E03EB28
:10466000820C05FA00FBCEF800B0CEF80060CCF862
:1046700010A0C1F8D890CCF8107046F240074FF067
:10468000A048039EC1F8D870C1F8D86094F90C60B6
:10469000B540B701C8F8645407EB0805E96849015B
:1046A000FCD44FF0010C07F1A041022703F12F4584
:1046B00005F560052D0D02EBC5050CFA02FC224A3A
:1046C00003EB800002EA463242EA454242F0807241
:1046D00042F0190204AD0D6048608F60CA601A682C
:1046E0004CEA02021A600B695B01FCD40122A36848
:1046F000216818339A408A608B681A42FCD00127DF
:1047000000252068A168066807FA01F326EA030677
:1047100006603B461822009501F0F4FE4AF20300C1
:10472000A368226803EB430302EBC3031921C3F818
:10473000D80047EC4010FFF7CDF8284607B0BDE899
:10474000F08F00BF00F8FF0FFDFF01FCF0B501295D
:10475000054683B003F103001E460F46089C20F077
:10476000030023D024234FF0040C174905EB8C0CD5
:1047700001EAC221314341EA0771043041F080412E
:10478000CCF8141004220090002128462B44FFF797
:104790007DF9074678B905F12801A14203D03246D8
:1047A000204604F027FD384603B0F0BD14234FF037
:1047B000000C1030D9E76FF004010448FEF7F4FF55
:1047C000384603B0F0BD00BF00F8FF0F549700104B
:1047D0002DE9F04F02298BB003F103049A460E46EF
:1047E00005469346DDF8509024F003031ED0284A76
:1047F0004AEA067602EACB2205F12800164348452C
:1048000003F1040446F0404632D02F465246494652
:1048100047F8246F04F0EEFC002322463946284670
:1048200014930BB0BDE8F04FFFF730B940F2E73416
:104830004FF00808174F039304E0059B9B0623D411
:10484000013C0DD304220021284604ABCDF80080A2
:104850000497FFF71BF90028EFD0039B002CC6D16B
:104860000D48FEF721FF6FF005000BB0BDE8F08F9B
:10487000294600232246284641F8246F14930BB0A2
:10488000BDE8F04FFFF702B9039B002CAFD1E7E77B
:1048900000F8FF0F044000408899001038B5836885
:1048A00021F4FF4424F07F04A3420BD06340B3F112
:1048B000807F054607D213F47F0F0ED113F47F4F8C
:1048C00016D1AC6038BD230E01210D4AFFF74EFE14
:1048D000AB68634013F47F0FF0D0230C012128460E
:1048E000084AFFF743FEAB68634013F47F4FE8D0FC
:1048F00001212846044A230AFFF738FEE1E700BFFA
:104900000C0001000B0001000A000100C31C70B57F
:104910009D08A1F1020019D0012D52D023F0070CFF
:10492000DE080B4601EB0C0E1C685A6843F8024C7B
:10493000C3F8022008339E45F6D1B5EB460F05D0EB
:1049400001EB0C0200EB0C0312681A60D1F8022094
:104950000B8814BAC1F80240D1F806405BBA0B804C
:1049600023BAC1F80630D1F80A30B2F18A4F1BBA27
:10497000C1F80A3000D070BDB4F1006FFBD1B1F8BE
:10498000AE20D1F8B240D1F83E3015199D421BD867
:1049900001F13A0313441C44A3423ED24FF0000CF1
:1049A000664604E0DD2D14D013449C421FD95A788A
:1049B00002329D18AC42F7D31D78302DF2D11E463D
:1049C000F2E70A460346BFE74FF0FF33C1F806306F
:1049D00070BD9D78002DE7D1DD78502DE4D11D7993
:1049E000F22DE1D15D79012D08BF9C46DCE7331E35
:1049F00018BF01239B00BCF1000F01D043F002035C
:104A0000B1F84A20D20691F8822048BF43F0010352
:104A100081F88630A1F8822070BD0023F0E700BF46
:104A20002DE9F0410E46054601213346184AFFF7AD
:104A30009DFD334601212846154AFFF797FD26B311
:104A40004FF00308474640240AE0012001F0EAFF46
:104A50003346012128460E4AFFF788FD013C0ED05F
:104A60000B4A01212846FFF78FFA002800EA0702C7
:104A7000EBDB4245E9D1FF28E7D0BDE8F0813146C4
:104A8000BDE8F0410348FEF78FBEB0460127DAE7E4
:104A90001F000100709700102DE9F043C37C05460C
:104AA0000F46164683B02BB9006801F081FB002841
:104AB00000F09580284601F081FBAB7C2BB90121E9
:104AC0002846FFF7ADFF0123AB74E97C00296ED0C7
:104AD0004FF47A7402E0013C00F08180082200214A
:104AE0002846FFF7FBF9421CF5D0C30540F1C5800D
:104AF000C0F34A235A1EB2F5C06F80F0B88010F0A0
:104B0000020240F0B48005F12804022128460094F6
:104B1000FFF71CFE00283FD1298D6A8D51EA020360
:104B200000F0AB800123EB744FF6FF7381EA020CB7
:104B30009C4540F0A880D24392B2914240F0A080C0
:104B40000B2940F2A78095F82D3095F8302003F01E
:104B50000F03022BAA7322D895F831C06A7BACEB05
:104B60000202D2B2142A98BF85F80DC00C291BD0BE
:104B7000012B37D0022B66D01B2940F2978095F885
:104B80002F302D8A23445A89954240F08C8010336F
:104B90001C1B0C1B3C60336003B0BDE8F0830C2988
:104BA00018BF6FF00A00F7D16FF00300F4E704229A
:104BB0002846FFF7BDF9DFF80C911FFA80F8B9F825
:104BC00000300446434502D010F0860F2DD1B8F1D5
:104BD000000F31D1A106A9F800803FF579AF4FF061
:104BE000FF30D9E7102964D995F82F202244D078D6
:104BF00002EB8002107C0432141B8828A1EB040114
:104C00004BD1507B6C2848D1D07C00283FD1107DFF
:104C100010283CD1507D182839D11846183918323F
:104C20003960326003B0BDE8F08341462248FEF7A8
:104C3000BBFDB8F1000FCDD0434604220021284629
:104C4000FFF7A4FBC6E710292AD9184695F82F20AC
:104C50002244D37802EB8303043392781C1B0C1B91
:104C600044EAC2723A60336003B0BDE8F0830123C6
:104C700028461946114AFFF779FC0023EB74AEE78A
:104C80006FF0010088E70E48FEF78EFDA7E76FF092
:104C9000090081E76FF002007EE76FF008007BE714
:104CA0006FF0060078E76FF0050075E76FF004001D
:104CB00072E76FF007006FE7949700100D00010096
:104CC000C0970010621C00202DE9F04F044685B00B
:104CD00099468B46924601F071FAA37C2BB90121CB
:104CE0002046FFF79DFE0123A374A37B13B32D4E33
:104CF000DFF8B880B76A0CE0A17BED1B19B9237B04
:104D0000627B9A421AD1454542D84FF47A7001F03D
:104D100053FE204603AA02A9B56AFFF7BDFE01288B
:104D2000EAD1DDE90201FFF7F1FD0146204601F07D
:104D30004BFAE1E7237B627B9A42D8D00AF10C015F
:104D400089B289F8043089F805B0CDF80090A9F847
:104D50000010C943BBF1020FA9F802104FF0000286
:104D600014BF0C210E21581C0AF10F0389F80710FB
:104D700089F80620A9F80820A9F80A200221207342
:104D800023F003032046FFF723FD05B0BDE8F08FB5
:104D9000637B227B0448FEF707FD6FF0010005B03E
:104DA000BDE8F08F00000B40EC97001040420F0070
:104DB0002DE9F04F284EDFF8AC80B76AB46A8A4616
:104DC000E41B44459346994683B02CD805460FE032
:104DD00002281FD0002803DB21462048FEF7E4FC10
:104DE0004FF47A7001F0E8FDB36ADB1B43451AD833
:104DF0006946284601AAFFF74FFE0446F8B101288C
:104E0000E6D1DDE90001FFF781FD0146284601F00A
:104E1000DBF9E5E7DDE90013286821F00042C90F5E
:104E200001F02EFEDCE76FF001044B465A46514676
:104E30000B48FEF7B9FC204603B0BDE8F08F009B9D
:104E40004A46994528BF1A460C98019904F0A2F8E1
:104E5000204603B0BDE8F08F00000B401098001012
:104E60003C9800103F420F002DE9F041044682B00B
:104E700008460E46904604F033FA0746314604F1E0
:104E800044057E1C2846324604F0B4F907F121039C
:104E9000B3F5006F45F806801DD87E1D002107F18F
:104EA000150240F20717238A204601339BB2238262
:104EB0001B0443F00203E363A66304F128032164A7
:104EC0006763FFF701FF30B933463A4602212046B7
:104ED0000095FFF76DFF02B0BDE8F0812DE9F047C6
:104EE000044608461D468946904604F0F9F904F147
:104EF00044072946451C42467819089E04F04AF8A2
:104F00002A4649463846454404F074F905F11C0325
:104F1000B3F5006F20D8238A360301339BB246EAEB
:104F2000034646F002060021E66340F2071623829C
:104F30002046A56304F1280305F11002216466638D
:104F4000FFF7C2FE40B92B463246204608970221A1
:104F5000BDE8F047FFF72CBFBDE8F08770B5836868
:104F600021F4FF4626F07F069E4204460D460AD0F5
:104F70007340B3F1807F23D213F47F0F2AD113F44F
:104F80007F4F32D1A660C5F30E020121204642F4C4
:104F90000042FEF7F9FFA3680546B3F1C05F0DD0EC
:104FA00083F0C053B3F1807F39D213F47F0F2BD13C
:104FB00013F47F4F20D14FF0C053A360284670BD3B
:104FC000330E01211B4AFFF7D1FAA368734013F493
:104FD0007F0FD4D0330C01212046174AFFF7C6FAC1
:104FE000A368734013F47F4FCCD001212046134AAD
:104FF000330AFFF7BBFAC5E74FF4C013012120467F
:105000000E4AFFF7B3FAD6E74FF4C053012120460A
:10501000094AFFF7ABFAA36883F0C053C8E7182327
:1050200001212046034AFFF7A1FAA36883F0C05389
:10503000BBE700BF0C0001000B0001000A000100EB
:105040002DE9F843866821F4FF4727F07F07B74230
:1050500004460D46904699460BD087EA060CBCF1F3
:10506000807F3CD21CF47F0F2FD11CF47F4F25D1C1
:10507000A760C5F30E02B8F1010F4B4642F400429F
:1050800017D001212046FFF791F8A368B3F1C05F64
:105090000DD083F0C053B3F1807F3CD213F47F0F67
:1050A0002ED113F47F4F23D14FF0C053A360BDE83E
:1050B000F88341462046FFF759FAE6E701212046EA
:1050C0001A4A3B0AFFF752FAD2E701212046184A52
:1050D0003B0CFFF74BFAA06887EA000CC5E73B0ED4
:1050E0000121144AFFF742FAA36887EA030CB9E7E3
:1050F0004FF4C013012120460C4AFFF737FAD3E7DB
:105100004FF4C05301212046094AFFF72FFAA36844
:1051100083F0C053C5E7182301212046054AFFF755
:1051200025FAA36883F0C053B8E700BF0A00010066
:105130000B0001000C00010001292DE9F0410CBF1A
:105140004FF438474FF4484704460CBFDFF88C83D0
:10515000DFF88C830D464146FFF7A0FB3A4601215C
:105160002046FEF711FFA368B3F1C05F10D083F0B3
:10517000C053B3F1807F80F0D08013F47F0F40F0F4
:10518000D98013F47F4F40F0E3804FF0C053A36009
:1051900041462046FFF782FB3A4601212046FEF7B2
:1051A000F3FEA3680646B3F1C05F10D083F0C0538E
:1051B000B3F1807F80F0788113F47F0F40F0698134
:1051C00013F47F4F40F05D814FF0C053A360F307AD
:1051D00040F17481012D0BBF4BF208454CF208459C
:1051E000B84EB94E20463146FFF758FB0323012144
:1051F0002A462046FFF7BAF9A368B3F1C05F10D082
:1052000083F0C053B3F1807F80F0318113F47F0FBE
:1052100040F0228113F47F4F40F016814FF0C053CD
:10522000A36031462046FFF739FB2A46012120467C
:10523000FEF7AAFEA368B3F1C05F10D083F0C0539D
:10524000B3F1807F80F0F68013F47F0F40F0E780A9
:1052500013F47F4F40F0DB804FF0C053A360414612
:105260002046FFF71BFB002301213A462046FFF7AB
:105270007DF9A368B3F1C05F10D083F0C053B3F1E0
:10528000807F80F0BA8013F47F0F40F0AB8013F47E
:105290007F4F40F09F804FF0C053A360012001F08A
:1052A000C1FB31462046FFF7F9FA01232A46194689
:1052B0002046FFF75BF9A368B3F1C05F0DD083F020
:1052C000C053B3F1807F7BD213F47F0F6DD113F401
:1052D0007F4F62D14FF0C053A36031462046FFF7A5
:1052E000DDFA2A4601212046FEF74EFEA368B3F1FF
:1052F000C05F0DD083F0C053B3F1807F43D213F46D
:105300007F0F35D113F47F4F2AD14FF0C053A360E4
:105310000120BDE8F04101F085BB182301212046A2
:105320006A4AFFF723F9A36883F0C05313F47F0F91
:105330003FF427AF4FF4C05301212046644AFFF7E2
:1053400015F9A36883F0C05313F47F4F3FF41DAFEA
:105350004FF4C013012120465E4AFFF707F914E716
:105360004FF4C013012120465A4AFFF7FFF8CCE75B
:105370004FF4C05301212046554AFFF7F7F8A368C0
:1053800083F0C053BEE71823012120464F4AFFF7A0
:10539000EDF8A36883F0C053B1E74FF4C0130121C7
:1053A00020464C4AFFF7E2F894E74FF4C05301213E
:1053B0002046474AFFF7DAF8A36883F0C05386E730
:1053C000182301212046414AFFF7D0F8A36883F053
:1053D000C05379E74FF4C013012120463D4AFFF73F
:1053E000C5F858E74FF4C05301212046384AFFF76B
:1053F000BDF8A36883F0C05349E718230121204674
:10540000324AFFF7B3F8A36883F0C0533BE74FF489
:10541000C013012120462F4AFFF7A8F81CE74FF4DC
:10542000C053012120462A4AFFF7A0F8A36883F061
:10543000C0530DE7182301212046244AFFF796F8B0
:10544000A36883F0C053FFE64FF4C0130121204648
:10545000204AFFF78BF8E1E64FF4C05301212046C4
:105460001B4AFFF783F8A36883F0C053D2E61823E2
:1054700001212046154AFFF779F8A36883F0C0534D
:10548000C4E64FF4C01301212046124AFFF76EF81C
:105490009AE64FF4C053012120460D4AFFF766F803
:1054A000A36883F0C0538BE6182301212046074AE6
:1054B000FFF75CF8A36883F0C0537DE60648FEF76B
:1054C000F3F887E608341018084410180C0001009F
:1054D0000B0001000A000100649800100038101849
:1054E0000048101800234FF48072016083608281AD
:1054F00083730361C0F84C38704700BFFEF7FCB9F6
:1055000010B5044682B06946204601AAFFF7C4FAE6
:10551000012805D002280CD00130F4D102B010BD12
:10552000DDE90001FFF7F2F90146204600F04CFEEC
:10553000E9E7DDE90013206821F00042C90F01F01E
:105540009FFAE0E72DE9F0471F4602F11C03B3F58F
:10555000006FDDF820C02DD804464FF00009164634
:105560004D084563008A4FEA410808F002080130FF
:1055700080B248EA0C3C4CEA0043E36393B23946FC
:105580002082A36304F14400C4F8409003F002FDBC
:105590004946204604F1280306F11002FFF794FB68
:1055A00050B933462A46414620460897BDE8F047A1
:1055B000FFF7FEBB6FF00400BDE8F08710B50446AE
:1055C00041B1837C03B910BD0021BDE81040817456
:1055D000FFF726BA00F0F2FDA37C002BF3D10121E6
:1055E0002046FFF71DFA0123A37410BD2DE9F041F9
:1055F00004464FF0000E4FF483761427038ADFF839
:105600006CC001339BB282B003821B04C0E90D67FA
:10561000C0F840E0C3630D4600F14408BCE80F0049
:105620006064DCF80000A164E26423656065714693
:105630002422204604F12803FFF746FB68B90146FF
:105640003B4632462046CDF80080FFF7B1FB38B923
:10565000636C2B60B4F84830AB8002B0BDE8F081D9
:105660006FF0010002B0BDE8F08100BFCC0E041065
:105670002DE9F0479E4B86B09B6A044643600F4677
:10568000FEF770F988B9FEF7CFFB0A25FEF7ECFBB1
:10569000984E142200212046FEF7FEFBB0420DD0AA
:1056A000012001F0BFF9013DF3D19348FDF7FCFF64
:1056B0006FF00506304606B0BDE8F08700222046B0
:1056C00011468E4BFEF78CFC05460028EDD10246B4
:1056D00001462046FEF702FC294610231D222046E3
:1056E000FEF744FF01460028DFD19923042220461B
:1056F000FEF73CFF01460028D7D1BE2306222046F4
:10570000FEF744FE0028D0D10823012120467C4A20
:10571000FEF72CFF0A257A4A01212046FEF734FCC9
:10572000420608D4012001F07DF9013DF3D175480E
:10573000FDF7BAFFBCE70023714A01212046FEF7BE
:1057400015FF20467049FFF7A9F84FF438420121B0
:105750002046FEF719FCA368B3F1C05F10D083F0B8
:10576000C053B3F1807F80F0D38213F47F0F40F0F9
:10577000978213F47F4F40F08B824FF0C053A360A9
:1057800020466149FFF78AF84FF43842012120464C
:10579000FEF7FAFBA3680546B3F1C05F10D083F0B3
:1057A000C053B3F1807F80F0698213F47F0F40F023
:1057B0005A8213F47F4F40F04E824FF0C053A360E3
:1057C000EB0740F15B8320465049FFF767F84FF441
:1057D000484201212046FEF7D7FBA368B3F1C05F22
:1057E00010D083F0C053B3F1807F80F0B88213F4FF
:1057F0007F0F40F0A98213F47F4F40F09D824FF05D
:10580000C053A36020464149FFF748F84FF448428F
:1058100001212046FEF7B8FBA3680546B3F1C05F3F
:1058200010D083F0C053B3F1807F80F07B8213F4FB
:105830007F0F40F0A68213F47F4F40F09A824FF022
:10584000C053A360EE0740F11D8302212046FFF7FD
:1058500073FC0323042220462D49FFF7F1FB0023AC
:10586000042220462B49FFF7EBFB2B4B2B4EB3F8C2
:105870000E23B2F5FA7F80F2AD8093F80D33002B42
:1058800040F0A880502A40F3A580254D05F1500333
:10589000A3EB020802E0454500F09C80284609225F
:1058A000204903F043FC013D0028F4D10546DFF810
:1058B0007880A6F140092E46204631464035FEF755
:1058C000EDFFC6F30E0209EB050000904023012115
:1058D000204642F40042FEF77BFF064600287FF494
:1058E000E9AE4545E7D18046DFF840A03BE000BF88
:1058F00000000B40ADBEEDFED4980010B3040200D2
:105900000E000100289900100038101800481018E7
:10591000104000184440001896040410F89B001032
:1059200053070410F4980010C06B0300D00B041050
:1059300013F47F0F3AD113F47F4F43D14FF4F02388
:10594000A3600AEB08004038C5F30E020090012165
:105950004B46204642F40042FEF73AFF00283DD174
:10596000B8F5407F3AD04546A16808F14008B8F53F
:105970003A7F8CBF4FF028094FF0400905F5FF250D
:10598000B1F5F02F81F4F02305F21455D9D0B3F11D
:10599000807FCDD3002301212046C74AFEF7E6FDD4
:1059A000A36883F4F02313F47F0FC4D007230121ED
:1059B0002046C24AFEF7DAFDA36883F4F02313F40D
:1059C0007F4FBBD04FF4F06301212046BC4AFEF765
:1059D000CDFDB3E7BB48FDF767FE69E6BA4B04228D
:1059E0002046BA49FFF72CFB01212046FFF7A4FB14
:1059F0002046B749FFF7B2FA00F00303012B40F04D
:105A000022812046B349FFF7A9FAC50700F11F819B
:105A10004FF47A7505E0012001F004F8013D00F033
:105A2000258201212046AC4AFEF7AEFA0006F2D5E7
:105A3000F02304222046A949FFF702FB202301217D
:105A40002046A74AFEF792FD4FF47A7505E0012043
:105A500000F0E8FF013D00F00D8200210822204601
:105A6000FEF73CFA8106F2D501219E4A2046FEF758
:105A70008BFAC3B201219B4A43F002032046FEF792
:105A800075FD0823F02200212046FEF76FFD02235A
:105A90000121914A2046FEF769FD934A01212046E3
:105AA000FEF772FAC20740F17B810F2301218F4A72
:105AB0002046FEF75BFD002301218C4A2046FEF7BD
:105AC00055FD0121894A2046FEF75EFA0422002195
:105AD0002046FEF72DFAC30700F16B81A368B3F1EE
